:0400000053EF00F0CA
:10000800FACF16F0FBCF17F0E9CF18F0B9EF07F0E9
:10001800D8CF01F0E8CF02F0E0CF03F0FACF04F038
:10002800FBCF05F0E9CF06F0EACF07F0E1CF08F003
:10003800E2CF09F0D9CF0AF0DACF0BF0F3CF0CF00A
:10004800F4CF0DF0F6CF0EF0F7CF0FF0F8CF10F099
:10005800F5CF11F0020E316E11C0F5FF10C0F8FF98
:100068000FC0F7FF0EC0F6FF0DC0F4FF0CC0F3FF82
:100078000BC0DAFF0AC0D9FF09C0E2FF08C0E1FFE0
:1000880007C0EAFF06C0E9FF05C0FBFF04C0FAFF8E
:1000980003C0E0FF02C0E8FF01C0D8FF1000EFEF87
:0200A80008F05E
:100F0000000D0A0D0A4F7363696C6C61746F722077
:100F1000616E64205065726970686572616C7320DF
:100F2000696E697469616C697A6564210D0A0041B2
:100F30002068696768207072696F726974792049E6
:100F40005251207761732069676E6F7265640A0081
:100F500041206C6F77207072696F726974792049D3
:100F60005251207761732069676E6F7265640A0061
:100F70000000EACF19F0E1CF1AF0E2CF1BF0D9CF91
:100F80001CF0DACF1DF0F3CF1EF0F4CF1FF0F6CF38
:100F900020F0F7CF21F0F8CF22F0F5CF23F0A4AA6C
:100FA00007D0A49A010E306ECDEC08F02E6E1BD047
:100FB000F2A40DD0F2948BB607D0800E136E000E03
:100FC000126E24EC09F000D035EC09F00CD0A1A28F
:100FD00007D0A192140E3218D8B405D0322A03D00B
:100FE000010E316E00D023C0F5FF22C0F8FF21C0F2
:100FF000F7FF20C0F6FF1FC0F4FF1EC0F3FF1DC0A7
:10100000DAFF1CC0D9FF1BC0E2FF1AC0E1FF19C004
:10101000EAFF18C0E9FF17C0FBFF16C0FAFF110076
:10102000266E000EBA6E000EA66E26A002D0BA88FA
:1010300000D026A203D0BA8CA68C00D026A402D061
:10104000BA8E00D026A602D0A68802D0A68A00D0EA
:1010500026A802D0BA8402D0BA9400D026AA02D020
:10106000A68600D026AC02D0A38A02D0A39A00D0D4
:1010700026AE02D0A38801D0A39824C07BFF2550C0
:101080007C6EBA8AA68E1200000E316E000E2F6E94
:10109000000E306E000E326E9496000E256E000E1D
:1010A000246E1BEC09F0970EDFEC08F0000E256EA5
:1010B000000E246E12EC09F07F0E246E9F0E98EC49
:1010C00008F0939C938E000E256E220E246E7C0EEB
:1010D00010EC08F09F8A9E8A9D8AA58AA48AA38A1A
:1010E000D08EF28CF28E120007EC09F044EC08F07E
:1010F000010E266E0F0E276EB7EC08F000D03104FB
:10110000D8A407D02F0E266E0F0E276EB7EC08F06E
:101110000AD0020E3118D8A4F2D7500E266E0F0E48
:10112000276EB7EC08F0000E316EE9D753EF00F0F0
:10113000266E2450F30BB06E26C025F07F0E2516C8
:10114000D8902534B16E000EB36E000EB26EA1922F
:10115000A19026AE02D0A08201D0A09224A402D0F9
:10116000A08001D0A090B0BEB086B1801200280E41
:10117000286E000E296E04D02A502DEC09F000D004
:1011800026C0F6FF27C0F7FF264A272A0800F5CF1A
:101190002AF02A50D8A4F0D71200F20E2D16A6ACD1
:1011A00005D02D90A6A002D02D8000D0A6B42D840D
:1011B000A6B22D867ACF12F0125012001200246EC1
:1011C00024507F0BD56E000ED76E000ED66EF294B3
:1011D00024AE02D0F28A01D0F29AD58E120000EE2F
:1011E0002BF0080EEE6AE806FDE1000EF86E0F0E19
:1011F000F76E000174EF08F0246EBAAC05D0BA9017
:101200002DA202D0BA8000D024C079FF1200F00EC7
:10121000D36E00D0D3A4FED7C00E9B6E00D0D3A453
:10122000FED7120024C026F025C027F027C0B3FF48
:1012300026C0B2FF120024C026F025C027F027C028
:10124000D7FF26C0D6FF120012C014F013C015F04D
:1012500015C0D7FF14C0D6FF1200256E00D0BAA269
:0E126000FED72550FCEC08F012008B76120031
:020000040020DA
:08000000FFFFFFFFFFFFFFFF00
:020000040030CA
:0E0000001D187F7FFF8991FF0FC00FE00F409A
:00000001FF
